{
  "contractName": "Bid",
  "abi": [
    {
      "constant": true,
      "inputs": [
        {
          "internalType": "uint256",
          "name": "",
          "type": "uint256"
        }
      ],
      "name": "bidList",
      "outputs": [
        {
          "internalType": "int256",
          "name": "",
          "type": "int256"
        }
      ],
      "payable": false,
      "stateMutability": "view",
      "type": "function"
    },
    {
      "constant": true,
      "inputs": [
        {
          "internalType": "address",
          "name": "",
          "type": "address"
        }
      ],
      "name": "biditems",
      "outputs": [
        {
          "internalType": "int256",
          "name": "id",
          "type": "int256"
        },
        {
          "internalType": "string",
          "name": "itemName",
          "type": "string"
        },
        {
          "internalType": "int256",
          "name": "maxPrice",
          "type": "int256"
        }
      ],
      "payable": false,
      "stateMutability": "view",
      "type": "function"
    },
    {
      "constant": true,
      "inputs": [
        {
          "internalType": "int256",
          "name": "",
          "type": "int256"
        }
      ],
      "name": "items",
      "outputs": [
        {
          "internalType": "int256",
          "name": "id",
          "type": "int256"
        },
        {
          "internalType": "string",
          "name": "itemName",
          "type": "string"
        },
        {
          "internalType": "int256",
          "name": "maxPrice",
          "type": "int256"
        }
      ],
      "payable": false,
      "stateMutability": "view",
      "type": "function"
    },
    {
      "constant": true,
      "inputs": [],
      "name": "itemsCount",
      "outputs": [
        {
          "internalType": "int256",
          "name": "",
          "type": "int256"
        }
      ],
      "payable": false,
      "stateMutability": "view",
      "type": "function"
    },
    {
      "constant": true,
      "inputs": [],
      "name": "winner",
      "outputs": [
        {
          "internalType": "int256",
          "name": "",
          "type": "int256"
        }
      ],
      "payable": false,
      "stateMutability": "view",
      "type": "function"
    },
    {
      "constant": true,
      "inputs": [],
      "name": "winner_name",
      "outputs": [
        {
          "internalType": "string",
          "name": "",
          "type": "string"
        }
      ],
      "payable": false,
      "stateMutability": "view",
      "type": "function"
    },
    {
      "constant": false,
      "inputs": [
        {
          "internalType": "string",
          "name": "_name",
          "type": "string"
        },
        {
          "internalType": "int256",
          "name": "_price",
          "type": "int256"
        }
      ],
      "name": "addItem",
      "outputs": [],
      "payable": false,
      "stateMutability": "nonpayable",
      "type": "function"
    },
    {
      "constant": true,
      "inputs": [],
      "name": "getItemsCount",
      "outputs": [
        {
          "internalType": "int256",
          "name": "",
          "type": "int256"
        }
      ],
      "payable": false,
      "stateMutability": "view",
      "type": "function"
    },
    {
      "constant": false,
      "inputs": [
        {
          "internalType": "int256",
          "name": "_id",
          "type": "int256"
        },
        {
          "internalType": "int256",
          "name": "_price",
          "type": "int256"
        }
      ],
      "name": "bid",
      "outputs": [],
      "payable": false,
      "stateMutability": "nonpayable",
      "type": "function"
    },
    {
      "constant": false,
      "inputs": [],
      "name": "getMaxBids",
      "outputs": [],
      "payable": false,
      "stateMutability": "nonpayable",
      "type": "function"
    },
    {
      "constant": true,
      "inputs": [],
      "name": "getWinnerID",
      "outputs": [
        {
          "internalType": "int256",
          "name": "",
          "type": "int256"
        }
      ],
      "payable": false,
      "stateMutability": "view",
      "type": "function"
    },
    {
      "constant": true,
      "inputs": [],
      "name": "getWinnerName",
      "outputs": [
        {
          "internalType": "string",
          "name": "",
          "type": "string"
        }
      ],
      "payable": false,
      "stateMutability": "view",
      "type": "function"
    }
  ],
  "bytecode": "0x6080604052600060025534801561001557600080fd5b50610aa8806100256000396000f3fe608060405234801561001057600080fd5b50600436106100b45760003560e01c8063995620371161007157806399562037146103a5578063b1ef93ca146103e7578063b375f6ee146103f1578063dd77a08c146104a6578063dfbf53ae146104c4578063e2c03ace146104e2576100b4565b80631a5741e7146100b957806321a72c0b146101845780632bfda51514610249578063512dd020146102cc578063691b1797146102ea5780637f8bdde014610322575b600080fd5b6100fb600480360360208110156100cf57600080fd5b81019080803573ffffffffffffffffffffffffffffffffffffffff169060200190929190505050610500565b6040518084815260200180602001838152602001828103825284818151815260200191508051906020019080838360005b8381101561014757808201518184015260208101905061012c565b50505050905090810190601f1680156101745780820380516001836020036101000a031916815260200191505b5094505050505060405180910390f35b6102476004803603604081101561019a57600080fd5b81019080803590602001906401000000008111156101b757600080fd5b8201836020820111156101c957600080fd5b803590602001918460018302840111640100000000831117156101eb57600080fd5b91908080601f016020809104026020016040519081016040528093929190818152602001838380828437600081840152601f19601f820116905080830192505050505050509192919290803590602001909291905050506105c2565b005b610251610636565b6040518080602001828103825283818151815260200191508051906020019080838360005b83811015610291578082015181840152602081019050610276565b50505050905090810190601f1680156102be5780820380516001836020036101000a031916815260200191505b509250505060405180910390f35b6102d46106d8565b6040518082815260200191505060405180910390f35b6103206004803603604081101561030057600080fd5b8101908080359060200190929190803590602001909291905050506106e2565b005b61032a61071d565b6040518080602001828103825283818151815260200191508051906020019080838360005b8381101561036a57808201518184015260208101905061034f565b50505050905090810190601f1680156103975780820380516001836020036101000a031916815260200191505b509250505060405180910390f35b6103d1600480360360208110156103bb57600080fd5b81019080803590602001909291905050506107bb565b6040518082815260200191505060405180910390f35b6103ef6107dc565b005b61041d6004803603602081101561040757600080fd5b810190808035906020019092919050505061086f565b6040518084815260200180602001838152602001828103825284818151815260200191508051906020019080838360005b8381101561046957808201518184015260208101905061044e565b50505050905090810190601f1680156104965780820380516001836020036101000a031916815260200191505b5094505050505060405180910390f35b6104ae610931565b6040518082815260200191505060405180910390f35b6104cc61093b565b6040518082815260200191505060405180910390f35b6104ea610941565b6040518082815260200191505060405180910390f35b6004602052806000526040600020600091509050806000015490806001018054600181600116156101000203166002900480601f0160208091040260200160405190810160405280929190818152602001828054600181600116156101000203166002900480156105b25780601f10610587576101008083540402835291602001916105b2565b820191906000526020600020905b81548152906001019060200180831161059557829003601f168201915b5050505050908060020154905083565b600180540160018190555060405180606001604052806001548152602001838152602001828152506000806001548152602001908152602001600020600082015181600001556020820151816001019080519060200190610624929190610947565b50604082015181600201559050505050565b606060038054600181600116156101000203166002900480601f0160208091040260200160405190810160405280929190818152602001828054600181600116156101000203166002900480156106ce5780601f106106a3576101008083540402835291602001916106ce565b820191906000526020600020905b8154815290600101906020018083116106b157829003601f168201915b5050505050905090565b6000600154905090565b6000808381526020019081526020016000206002015481126107195780600080848152602001908152602001600020600201819055505b5050565b60038054600181600116156101000203166002900480601f0160208091040260200160405190810160405280929190818152602001828054600181600116156101000203166002900480156107b35780601f10610788576101008083540402835291602001916107b3565b820191906000526020600020905b81548152906001019060200180831161079657829003601f168201915b505050505081565b600581815481106107c857fe5b906000526020600020016000915090505481565b60008090505b60015481121561086c5760025460008083815260200190815260200160002060020154131561085f57600080828152602001908152602001600020600201546002819055506000808281526020019081526020016000206001016003908054600181600116156101000203166002900461085d9291906109c7565b505b80806001019150506107e2565b50565b6000602052806000526040600020600091509050806000015490806001018054600181600116156101000203166002900480601f0160208091040260200160405190810160405280929190818152602001828054600181600116156101000203166002900480156109215780601f106108f657610100808354040283529160200191610921565b820191906000526020600020905b81548152906001019060200180831161090457829003601f168201915b5050505050908060020154905083565b6000600254905090565b60025481565b60015481565b828054600181600116156101000203166002900490600052602060002090601f016020900481019282601f1061098857805160ff19168380011785556109b6565b828001600101855582156109b6579182015b828111156109b557825182559160200191906001019061099a565b5b5090506109c39190610a4e565b5090565b828054600181600116156101000203166002900490600052602060002090601f016020900481019282601f10610a005780548555610a3d565b82800160010185558215610a3d57600052602060002091601f016020900482015b82811115610a3c578254825591600101919060010190610a21565b5b509050610a4a9190610a4e565b5090565b610a7091905b80821115610a6c576000816000905550600101610a54565b5090565b9056fea265627a7a7231582069d842c05aae95c068e7867a075ad0aa8a2b13d9cf8b7c81ca4b23cd1408e35c64736f6c634300050c0032",
  "source": "pragma solidity ^0.5.0;\n\ncontract Bid {\n\n    struct Item {\n        int id;\n        string itemName;\n        int maxPrice;\n    }\n\n    mapping(int => Item) public items;\n    int public itemsCount;\n   \n    int public winner=0;\n    string public winner_name;\n\n\n    mapping(address => Item) public biditems;\n    // constructor () public {\n    //     addItem(\"Item 1\");\n    //     addItem(\"Item 2\");\n    // }\n\n    int [] public bidList;\n\n    function addItem (string memory _name, int _price) public {\n        itemsCount=itemsCount +1;\n        items[itemsCount] = Item(itemsCount, _name, _price);\n        //bidList.push(itemsCount);\n    }\n\n    function getItemsCount() public view returns(int) {\n        return itemsCount;\n    }\n\n    function bid(int _id, int _price) public{\n        if (_price >= items[_id].maxPrice) {\n            items[_id].maxPrice = _price;\n        }\n    }\n\n    function getMaxBids() public {\n      \n      for (int i = 0; i < itemsCount; i++) {\n            if (items[i].maxPrice > winner) {\n                winner=items[i].maxPrice;\n                winner_name=items[i].itemName;\n            }\n        \n    }\n}\n\nfunction getWinnerID() public view returns(int) {\n         return winner;\n     }\n\n     function getWinnerName() public view returns(string memory) {\n         return winner_name;\n     }\n\n\n}\n",
  "sourcePath": "/Users/ravali.kuppachi/Documents/blockchain/oldcode/eth/contracts/Bid.sol",
  "compiler": {
    "name": "solc",
    "version": "0.5.12+commit.7709ece9.Emscripten.clang"
  },
  "schemaVersion": "3.0.19",
  "updatedAt": "2019-12-04T15:44:37.687Z",
  "networkType": "ethereum",
  "devdoc": {
    "methods": {}
  },
  "userdoc": {
    "methods": {}
  }
}